{
  "_format": "hh-sol-artifact-1",
  "contractName": "OrderBook",
  "sourceName": "contracts/OrderBook.sol",
  "abi": [
    {
      "inputs": [],
      "stateMutability": "nonpayable",
      "type": "constructor"
    },
    {
      "inputs": [],
      "name": "AlreadyInitialized",
      "type": "error"
    },
    {
      "inputs": [],
      "name": "InsufficientLiquidity",
      "type": "error"
    },
    {
      "inputs": [],
      "name": "InvalidInitialization",
      "type": "error"
    },
    {
      "inputs": [],
      "name": "InvalidSpread",
      "type": "error"
    },
    {
      "inputs": [],
      "name": "LengthMismatch",
      "type": "error"
    },
    {
      "inputs": [],
      "name": "MarketFeeError",
      "type": "error"
    },
    {
      "inputs": [],
      "name": "MarketStateError",
      "type": "error"
    },
    {
      "inputs": [],
      "name": "NativeAssetInsufficient",
      "type": "error"
    },
    {
      "inputs": [],
      "name": "NativeAssetTransferFail",
      "type": "error"
    },
    {
      "inputs": [],
      "name": "NewOwnerIsZeroAddress",
      "type": "error"
    },
    {
      "inputs": [],
      "name": "NoHandoverRequest",
      "type": "error"
    },
    {
      "inputs": [],
      "name": "NotInitializing",
      "type": "error"
    },
    {
      "inputs": [],
      "name": "OnlyOwnerAllowedError",
      "type": "error"
    },
    {
      "inputs": [],
      "name": "OrderAlreadyFilledOrCancelled",
      "type": "error"
    },
    {
      "inputs": [],
      "name": "PostOnlyError",
      "type": "error"
    },
    {
      "inputs": [],
      "name": "PriceError",
      "type": "error"
    },
    {
      "inputs": [],
      "name": "SizeError",
      "type": "error"
    },
    {
      "inputs": [],
      "name": "TickSizeError",
      "type": "error"
    },
    {
      "inputs": [],
      "name": "TooMuchSizeFilled",
      "type": "error"
    },
    {
      "inputs": [],
      "name": "Unauthorized",
      "type": "error"
    },
    {
      "inputs": [],
      "name": "UnauthorizedCallContext",
      "type": "error"
    },
    {
      "inputs": [],
      "name": "UpgradeFailed",
      "type": "error"
    },
    {
      "anonymous": false,
      "inputs": [
        {
          "indexed": false,
          "internalType": "uint64",
          "name": "version",
          "type": "uint64"
        }
      ],
      "name": "Initialized",
      "type": "event"
    },
    {
      "anonymous": false,
      "inputs": [
        {
          "indexed": false,
          "internalType": "uint40",
          "name": "orderId",
          "type": "uint40"
        },
        {
          "indexed": false,
          "internalType": "address",
          "name": "owner",
          "type": "address"
        },
        {
          "indexed": false,
          "internalType": "uint96",
          "name": "size",
          "type": "uint96"
        },
        {
          "indexed": false,
          "internalType": "uint24",
          "name": "price",
          "type": "uint24"
        },
        {
          "indexed": false,
          "internalType": "bool",
          "name": "isBuy",
          "type": "bool"
        }
      ],
      "name": "OrderCreated",
      "type": "event"
    },
    {
      "anonymous": false,
      "inputs": [
        {
          "indexed": false,
          "internalType": "uint40[]",
          "name": "orderId",
          "type": "uint40[]"
        },
        {
          "indexed": false,
          "internalType": "address",
          "name": "owner",
          "type": "address"
        }
      ],
      "name": "OrdersCanceled",
      "type": "event"
    },
    {
      "anonymous": false,
      "inputs": [
        {
          "indexed": true,
          "internalType": "address",
          "name": "pendingOwner",
          "type": "address"
        }
      ],
      "name": "OwnershipHandoverCanceled",
      "type": "event"
    },
    {
      "anonymous": false,
      "inputs": [
        {
          "indexed": true,
          "internalType": "address",
          "name": "pendingOwner",
          "type": "address"
        }
      ],
      "name": "OwnershipHandoverRequested",
      "type": "event"
    },
    {
      "anonymous": false,
      "inputs": [
        {
          "indexed": true,
          "internalType": "address",
          "name": "oldOwner",
          "type": "address"
        },
        {
          "indexed": true,
          "internalType": "address",
          "name": "newOwner",
          "type": "address"
        }
      ],
      "name": "OwnershipTransferred",
      "type": "event"
    },
    {
      "anonymous": false,
      "inputs": [
        {
          "indexed": false,
          "internalType": "uint40",
          "name": "orderId",
          "type": "uint40"
        },
        {
          "indexed": false,
          "internalType": "address",
          "name": "makerAddress",
          "type": "address"
        },
        {
          "indexed": false,
          "internalType": "bool",
          "name": "isBuy",
          "type": "bool"
        },
        {
          "indexed": false,
          "internalType": "uint256",
          "name": "price",
          "type": "uint256"
        },
        {
          "indexed": false,
          "internalType": "uint96",
          "name": "updatedSize",
          "type": "uint96"
        },
        {
          "indexed": false,
          "internalType": "address",
          "name": "takerAddress",
          "type": "address"
        },
        {
          "indexed": false,
          "internalType": "uint96",
          "name": "filledSize",
          "type": "uint96"
        }
      ],
      "name": "Trade",
      "type": "event"
    },
    {
      "anonymous": false,
      "inputs": [
        {
          "indexed": true,
          "internalType": "address",
          "name": "implementation",
          "type": "address"
        }
      ],
      "name": "Upgraded",
      "type": "event"
    },
    {
      "inputs": [
        {
          "internalType": "uint24",
          "name": "_price",
          "type": "uint24"
        },
        {
          "internalType": "uint96",
          "name": "size",
          "type": "uint96"
        },
        {
          "internalType": "bool",
          "name": "_postOnly",
          "type": "bool"
        }
      ],
      "name": "addBuyOrder",
      "outputs": [],
      "stateMutability": "nonpayable",
      "type": "function"
    },
    {
      "inputs": [
        {
          "internalType": "uint24",
          "name": "_price",
          "type": "uint24"
        },
        {
          "internalType": "uint96",
          "name": "size",
          "type": "uint96"
        },
        {
          "internalType": "bool",
          "name": "_postOnly",
          "type": "bool"
        }
      ],
      "name": "addSellOrder",
      "outputs": [],
      "stateMutability": "nonpayable",
      "type": "function"
    },
    {
      "inputs": [
        {
          "internalType": "uint40[]",
          "name": "_orderIds",
          "type": "uint40[]"
        }
      ],
      "name": "batchCancelOrders",
      "outputs": [],
      "stateMutability": "nonpayable",
      "type": "function"
    },
    {
      "inputs": [
        {
          "internalType": "uint24[]",
          "name": "buyPrices",
          "type": "uint24[]"
        },
        {
          "internalType": "uint96[]",
          "name": "buySizes",
          "type": "uint96[]"
        },
        {
          "internalType": "uint24[]",
          "name": "sellPrices",
          "type": "uint24[]"
        },
        {
          "internalType": "uint96[]",
          "name": "sellSizes",
          "type": "uint96[]"
        },
        {
          "internalType": "uint40[]",
          "name": "orderIdsToCancel",
          "type": "uint40[]"
        },
        {
          "internalType": "bool",
          "name": "postOnly",
          "type": "bool"
        }
      ],
      "name": "batchUpdate",
      "outputs": [],
      "stateMutability": "nonpayable",
      "type": "function"
    },
    {
      "inputs": [],
      "name": "bestBidAsk",
      "outputs": [
        {
          "internalType": "uint256",
          "name": "",
          "type": "uint256"
        },
        {
          "internalType": "uint256",
          "name": "",
          "type": "uint256"
        }
      ],
      "stateMutability": "view",
      "type": "function"
    },
    {
      "inputs": [],
      "name": "cancelOwnershipHandover",
      "outputs": [],
      "stateMutability": "payable",
      "type": "function"
    },
    {
      "inputs": [],
      "name": "collectFees",
      "outputs": [],
      "stateMutability": "nonpayable",
      "type": "function"
    },
    {
      "inputs": [
        {
          "internalType": "address",
          "name": "pendingOwner",
          "type": "address"
        }
      ],
      "name": "completeOwnershipHandover",
      "outputs": [],
      "stateMutability": "payable",
      "type": "function"
    },
    {
      "inputs": [],
      "name": "getL2Book",
      "outputs": [
        {
          "internalType": "bytes",
          "name": "",
          "type": "bytes"
        }
      ],
      "stateMutability": "view",
      "type": "function"
    },
    {
      "inputs": [],
      "name": "getMarketParams",
      "outputs": [
        {
          "internalType": "uint24",
          "name": "",
          "type": "uint24"
        },
        {
          "internalType": "uint96",
          "name": "",
          "type": "uint96"
        },
        {
          "internalType": "address",
          "name": "",
          "type": "address"
        },
        {
          "internalType": "uint256",
          "name": "",
          "type": "uint256"
        },
        {
          "internalType": "address",
          "name": "",
          "type": "address"
        },
        {
          "internalType": "uint256",
          "name": "",
          "type": "uint256"
        },
        {
          "internalType": "uint24",
          "name": "",
          "type": "uint24"
        },
        {
          "internalType": "uint96",
          "name": "",
          "type": "uint96"
        },
        {
          "internalType": "uint96",
          "name": "",
          "type": "uint96"
        },
        {
          "internalType": "uint256",
          "name": "",
          "type": "uint256"
        },
        {
          "internalType": "uint256",
          "name": "",
          "type": "uint256"
        }
      ],
      "stateMutability": "view",
      "type": "function"
    },
    {
      "inputs": [],
      "name": "getVaultParams",
      "outputs": [
        {
          "internalType": "address",
          "name": "",
          "type": "address"
        },
        {
          "internalType": "uint256",
          "name": "",
          "type": "uint256"
        },
        {
          "internalType": "uint96",
          "name": "",
          "type": "uint96"
        },
        {
          "internalType": "uint256",
          "name": "",
          "type": "uint256"
        },
        {
          "internalType": "uint96",
          "name": "",
          "type": "uint96"
        },
        {
          "internalType": "uint96",
          "name": "",
          "type": "uint96"
        },
        {
          "internalType": "uint96",
          "name": "",
          "type": "uint96"
        }
      ],
      "stateMutability": "view",
      "type": "function"
    },
    {
      "inputs": [
        {
          "internalType": "address",
          "name": "_owner",
          "type": "address"
        },
        {
          "internalType": "enum IOrderBook.OrderBookType",
          "name": "_type",
          "type": "uint8"
        },
        {
          "internalType": "address",
          "name": "_baseAssetAddress",
          "type": "address"
        },
        {
          "internalType": "uint256",
          "name": "_baseAssetDecimals",
          "type": "uint256"
        },
        {
          "internalType": "address",
          "name": "_quoteAssetAddress",
          "type": "address"
        },
        {
          "internalType": "uint256",
          "name": "_quoteAssetDecimals",
          "type": "uint256"
        },
        {
          "internalType": "address",
          "name": "_marginAccountAddress",
          "type": "address"
        },
        {
          "internalType": "uint96",
          "name": "_sizePrecision",
          "type": "uint96"
        },
        {
          "internalType": "uint24",
          "name": "_pricePrecision",
          "type": "uint24"
        },
        {
          "internalType": "uint24",
          "name": "_tickSize",
          "type": "uint24"
        },
        {
          "internalType": "uint96",
          "name": "_minSize",
          "type": "uint96"
        },
        {
          "internalType": "uint96",
          "name": "_maxSize",
          "type": "uint96"
        },
        {
          "internalType": "uint256",
          "name": "_takerFeeBps",
          "type": "uint256"
        },
        {
          "internalType": "uint256",
          "name": "_makerFeeBps",
          "type": "uint256"
        },
        {
          "internalType": "address",
          "name": "_kuruAmmVault",
          "type": "address"
        },
        {
          "internalType": "uint96",
          "name": "_kuruAmmSpread",
          "type": "uint96"
        }
      ],
      "name": "initialize",
      "outputs": [],
      "stateMutability": "nonpayable",
      "type": "function"
    },
    {
      "inputs": [],
      "name": "owner",
      "outputs": [
        {
          "internalType": "address",
          "name": "result",
          "type": "address"
        }
      ],
      "stateMutability": "view",
      "type": "function"
    },
    {
      "inputs": [
        {
          "internalType": "address",
          "name": "pendingOwner",
          "type": "address"
        }
      ],
      "name": "ownershipHandoverExpiresAt",
      "outputs": [
        {
          "internalType": "uint256",
          "name": "result",
          "type": "uint256"
        }
      ],
      "stateMutability": "view",
      "type": "function"
    },
    {
      "inputs": [
        {
          "internalType": "uint24",
          "name": "_quoteSize",
          "type": "uint24"
        },
        {
          "internalType": "bool",
          "name": "_isFillOrKill",
          "type": "bool"
        }
      ],
      "name": "placeAndExecuteMarketBuy",
      "outputs": [
        {
          "internalType": "uint256",
          "name": "",
          "type": "uint256"
        }
      ],
      "stateMutability": "payable",
      "type": "function"
    },
    {
      "inputs": [
        {
          "internalType": "uint96",
          "name": "_size",
          "type": "uint96"
        },
        {
          "internalType": "bool",
          "name": "_isFillOrKill",
          "type": "bool"
        }
      ],
      "name": "placeAndExecuteMarketSell",
      "outputs": [
        {
          "internalType": "uint256",
          "name": "",
          "type": "uint256"
        }
      ],
      "stateMutability": "payable",
      "type": "function"
    },
    {
      "inputs": [
        {
          "internalType": "uint24[]",
          "name": "_prices",
          "type": "uint24[]"
        },
        {
          "internalType": "uint96[]",
          "name": "_sizes",
          "type": "uint96[]"
        },
        {
          "internalType": "bool",
          "name": "_postOnly",
          "type": "bool"
        }
      ],
      "name": "placeMultipleBuyOrders",
      "outputs": [],
      "stateMutability": "nonpayable",
      "type": "function"
    },
    {
      "inputs": [
        {
          "internalType": "uint24[]",
          "name": "_prices",
          "type": "uint24[]"
        },
        {
          "internalType": "uint96[]",
          "name": "_sizes",
          "type": "uint96[]"
        },
        {
          "internalType": "bool",
          "name": "_postOnly",
          "type": "bool"
        }
      ],
      "name": "placeMultipleSellOrders",
      "outputs": [],
      "stateMutability": "nonpayable",
      "type": "function"
    },
    {
      "inputs": [],
      "name": "proxiableUUID",
      "outputs": [
        {
          "internalType": "bytes32",
          "name": "",
          "type": "bytes32"
        }
      ],
      "stateMutability": "view",
      "type": "function"
    },
    {
      "inputs": [],
      "name": "renounceOwnership",
      "outputs": [],
      "stateMutability": "payable",
      "type": "function"
    },
    {
      "inputs": [],
      "name": "requestOwnershipHandover",
      "outputs": [],
      "stateMutability": "payable",
      "type": "function"
    },
    {
      "inputs": [
        {
          "internalType": "uint256",
          "name": "",
          "type": "uint256"
        }
      ],
      "name": "s_buyPricePoints",
      "outputs": [
        {
          "internalType": "uint40",
          "name": "head",
          "type": "uint40"
        },
        {
          "internalType": "uint40",
          "name": "tail",
          "type": "uint40"
        }
      ],
      "stateMutability": "view",
      "type": "function"
    },
    {
      "inputs": [],
      "name": "s_buyTree",
      "outputs": [
        {
          "internalType": "bytes32",
          "name": "level0",
          "type": "bytes32"
        }
      ],
      "stateMutability": "view",
      "type": "function"
    },
    {
      "inputs": [],
      "name": "s_orderIdCounter",
      "outputs": [
        {
          "internalType": "uint40",
          "name": "",
          "type": "uint40"
        }
      ],
      "stateMutability": "view",
      "type": "function"
    },
    {
      "inputs": [
        {
          "internalType": "uint40",
          "name": "",
          "type": "uint40"
        }
      ],
      "name": "s_orders",
      "outputs": [
        {
          "internalType": "address",
          "name": "ownerAddress",
          "type": "address"
        },
        {
          "internalType": "uint96",
          "name": "size",
          "type": "uint96"
        },
        {
          "internalType": "uint40",
          "name": "prev",
          "type": "uint40"
        },
        {
          "internalType": "uint40",
          "name": "next",
          "type": "uint40"
        },
        {
          "internalType": "uint24",
          "name": "price",
          "type": "uint24"
        },
        {
          "internalType": "bool",
          "name": "isBuy",
          "type": "bool"
        }
      ],
      "stateMutability": "view",
      "type": "function"
    },
    {
      "inputs": [
        {
          "internalType": "uint256",
          "name": "",
          "type": "uint256"
        }
      ],
      "name": "s_sellPricePoints",
      "outputs": [
        {
          "internalType": "uint40",
          "name": "head",
          "type": "uint40"
        },
        {
          "internalType": "uint40",
          "name": "tail",
          "type": "uint40"
        }
      ],
      "stateMutability": "view",
      "type": "function"
    },
    {
      "inputs": [],
      "name": "s_sellTree",
      "outputs": [
        {
          "internalType": "bytes32",
          "name": "level0",
          "type": "bytes32"
        }
      ],
      "stateMutability": "view",
      "type": "function"
    },
    {
      "inputs": [
        {
          "internalType": "bool",
          "name": "_state",
          "type": "bool"
        }
      ],
      "name": "toggleMarkets",
      "outputs": [],
      "stateMutability": "nonpayable",
      "type": "function"
    },
    {
      "inputs": [
        {
          "internalType": "address",
          "name": "newOwner",
          "type": "address"
        }
      ],
      "name": "transferOwnership",
      "outputs": [],
      "stateMutability": "payable",
      "type": "function"
    },
    {
      "inputs": [
        {
          "internalType": "uint96",
          "name": "_vaultAskOrderSize",
          "type": "uint96"
        },
        {
          "internalType": "uint96",
          "name": "_vaultBidOrderSize",
          "type": "uint96"
        },
        {
          "internalType": "uint256",
          "name": "_askPrice",
          "type": "uint256"
        },
        {
          "internalType": "uint256",
          "name": "_bidPrice",
          "type": "uint256"
        }
      ],
      "name": "updateVaultOrdSz",
      "outputs": [],
      "stateMutability": "nonpayable",
      "type": "function"
    },
    {
      "inputs": [
        {
          "internalType": "address",
          "name": "newImplementation",
          "type": "address"
        },
        {
          "internalType": "bytes",
          "name": "data",
          "type": "bytes"
        }
      ],
      "name": "upgradeToAndCall",
      "outputs": [],
      "stateMutability": "payable",
      "type": "function"
    },
    {
      "inputs": [],
      "name": "vaultAskOrderSize",
      "outputs": [
        {
          "internalType": "uint96",
          "name": "",
          "type": "uint96"
        }
      ],
      "stateMutability": "view",
      "type": "function"
    },
    {
      "inputs": [],
      "name": "vaultBestAsk",
      "outputs": [
        {
          "internalType": "uint256",
          "name": "",
          "type": "uint256"
        }
      ],
      "stateMutability": "view",
      "type": "function"
    }
  ],
  "bytecode": "0x60a08060405234609a573060805263409feecd195460018116608c5760011c6002600160401b0319016048575b61546190816100a0823960805181818161127101526113360152f35b6002600160411b0363409feecd19556001600160401b0360209081527fc7f505b2f371ae2175ee4913f4499e1f2633a7b5936321eed1cdaeb6115181d29080a1602c565b63f92ee8a96000526004601cfd5b600080fdfe61026080604052600436101561001457600080fd5b60003560e01c90816302b90c65146126d8575080630e2e2ffe14612683578063137fc7bb146123525780631c0d9c22146122c857806320b3fa5c14611bfc57806323afbff314611b685780632569296214611b1c5780632aa9fbdc1461168e5780632bf1360e1461166957806346fdfbb114611472578063474b848c146114545780634d781103146114005780634f1ef286146112e257806351130ac6146112bb57806352d1902d1461125d57806354d1f13d146112155780635b16c9b6146111d5578063715018a61461119857806388bb4f60146111305780638da5cb5b1461110357806390c9427c14611063578063b4de8b7014611031578063badc92d114611013578063bb62b3c514610bdc578063c879657214610b45578063cae22ee614610919578063cc57aec614610410578063d2cd7d7f14610379578063e55bb4e3146102aa578063e6d29b5114610251578063f04e283e14610201578063f2fde38b146101c35763fee81cf41461018b57600080fd5b346101be5760203660031901126101be576101a46126f3565b63389a75e1600c52600052602080600c2054604051908152f35b600080fd5b60203660031901126101be576101d76126f3565b6101df61371d565b8060601b156101f3576101f190614296565b005b637448fbae6000526004601cfd5b60203660031901126101be576102156126f3565b61021d61371d565b63389a75e1600c52806000526020600c2090815442116102435760006101f19255614296565b636f5e88186000526004601cfd5b346101be5760203660031901126101be5760043560005260076020526102a6604060002054604051918164ffffffffff80859460281c1691168390929164ffffffffff60209181604085019616845216910152565b0390f35b346101be5760803660031901126101be576102c361271f565b6102cb612709565b6000549091906001600160a01b0316330361033c576001600160601b0391600454908360601b9060601b16908360601b191617600455166001600160601b0319600554161760055560001960035414610331575b6001541561032957005b606435600155005b60443560035561031f565b60405162461bcd60e51b815260206004820152601560248201527413dc99195c909bdbdace8813db9b1e4815985d5b1d605a1b6044820152606490fd5b346101be57610387366127e4565b9360ff600f5460281c166103ef578184036103ff5760005b8481106103a857005b6103bb6103b68287856128aa565b6128d0565b906103cf6103ca8286886128aa565b6128e0565b60ff600f5460281c166103ef57876103e991600194612bab565b0161039f565b6225b2dd60e11b60005260046000fd5b631fec674760e31b60005260046000fd5b346101be5760603660031901126101be57610429612735565b610431612709565b9061043a612786565b60ff600f5460281c166103ef5762ffffff8216801561090857601654936001600160601b038116946001600160601b0381168611156108f75760601c6001600160601b03168510156108f75762ffffff61049b8160155460a01c1686612b36565b166108e6579284929392600080956104b161439e565b949094926000906060995b6001600160601b038a161515806108dc575b806108d3575b156105cb57896000891561057f57506104ec90614cec565b9390988994935b8c869b6104ff91613321565b61050891612acf565b9b6000916000146105669662ffffff61054d61053e6105609861055a976105549661053857506105388588613321565b90612acf565b9c82600f5460901c1690614fd7565b1692613321565b90614460565b90612dc3565b99612aef565b9561056f61439e565b95909698909594999197996104bc565b6001600160601b0394916105c091604062ffffff670de0b6b3a76400006105ae8d83600f5460901c1690612859565b0416918b815260086020522090614707565b9416988994936104f3565b848b8b9489936001600160601b038d9616806106ee575b505061063791506105f79061055a8789614460565b61063061061f60018060a01b03601554169262ffffff610618601354612960565b9116612859565b62ffffff600f5460901c169061286c565b339161373a565b6106c8575b506001600160601b03821661064d57005b6106c360008051602061540c83398151915293600f549261067464ffffffffff8516612b4c565b64ffffffffff1990941664ffffffffff851617600f5561069382614070565b5060005260076020526106b56106ad84604060002061419c565b8486846141fb565b604051938493339085612b66565b0390a1005b6001600160601b038316036106dd578361063c565b6306e6da4d60e01b60005260046000fd5b610704601254916106fe83612960565b90612859565b6001600160601b0361071e81600f5460301c16809361286c565b93169182610837575b50505061079b60009361077f602093601054806107f6575b5060018060a01b03601954169261077a60018060a01b036014541661076c604051948592338b8501612a17565b03601f19810184528361299f565b612aef565b6040519586809481936337adb00f60e11b8352600483016127b8565b03925af19081156107ea57610637926105f7926107bb575b8192506105e2565b6107dc9060203d6020116107e3575b6107d4818361299f565b8101906129ff565b50886107b3565b503d6107ca565b6040513d6000823e3d90fd5b6108268161082161081461080d61082e9587615005565b8096613363565b946106fe60115484613363565b61286c565b601854613370565b6018558c61073f565b6019546000805460145461088e966020966001600160a01b0393841696958416959390921693926108709291610821916106fe90612960565b604051633609c92960e11b8152968795869485939160048501613341565b03925af19384156107ea5761077f60209361079b936000976108b6575b509350819550610727565b6108cc90863d88116107e3576107d4818361299f565b508c6108ab565b508515156104d4565b50888611156104ce565b63272d3bf760e01b60005260046000fd5b630a5c4f1f60e01b60005260046000fd5b6348fa9b2b60e11b60005260046000fd5b60403660031901126101be5761092d61271f565b610935612777565b90600f5460ff8160281c166103ef5760ff60055460c01c1660038110159081610a6e57600114918215610aeb5750610998610983610974601254612960565b6001600160601b038616612859565b6001600160601b03600f5460301c169061286c565b3410610ada576109af6001600160601b039361379c565b9316938415610a9557610a8457610a6e57156109e9576109e16109dc6109836020946106fe601254612960565b61337d565b604051908152f35b601954601454601254610a38946020936001600160a01b03938416931691610a1891610983916106fe90612960565b916000604051809781958294633af55cc760e11b84523360048501612a40565b03925af19182156107ea57602092610a51575b506109e1565b610a6790833d85116107e3576107d4818361299f565b5082610a4b565b634e487b7160e01b600052602160045260246000fd5b63bb55fd2760e01b60005260046000fd5b5050909150600090610aab575b506020906109e1565b8080808060018060a01b036019541634905af1610ac66129c0565b50610aa25763386bf62b60e11b8152600490fd5b63fd99316160e01b60005260046000fd5b6001600160601b0393610b406109af9260018060a01b036014541690610b3860018060a01b03601954169189610b2d610b25601254612960565b828916612859565b9160301c169061286c565b9133906132d1565b61379c565b346101be5760003660031901126101be576019546014546018546015546017546040516324facdb160e11b81526001600160a01b0394851660048201526024810193909352908316604483015260648201529160209183916084918391600091165af180156107ea57610bbf575b60006018819055601755005b610bd79060203d6020116107e3576107d4818361299f565b610bb3565b346101be57610bea366127e4565b919360ff600f5460281c166103ef578184036103ff5760009493945b858110610c0f57005b610c1d6103b68288856128aa565b93610c2c6103ca8386896128aa565b9160ff600f5460281c166103ef5762ffffff861690811561090857601654936001600160601b038116946001600160601b0381168611156108f75760601c6001600160601b03168510156108f75762ffffff610c8f8160155460a01c168a612b36565b166108e657989597949895600080610ca561439e565b9890989960006060915b6001600160601b038116151580611009575b80611000575b15610db157808d60008e15610d66575050610ce4610d0c92614cec565b929092975b610cf884986105388686613321565b9e6000901561053857506105388484613321565b9d600f5460901c62ffffff16610d2191614fd7565b62ffffff1691610d3091613321565b610d3991614460565b610d4291612dc3565b93610d4c91612aef565b93610d5561439e565b9d909d9b94909d9a93959195610caf565b6001600160601b0393610d0c926040610da89362ffffff670de0b6b3a7640000610d9782600f5460901c1686612859565b041692815260086020522090614707565b93169297610ce9565b96989c9799959d9b50928c9491929e9a506001600160601b031680610e8b575b505050610de5610e209161055a8688614460565b610e0360018060a01b03601554169162ffffff610618601354612960565b90610e1a339262ffffff600f5460901c169061286c565b9061373a565b610e76575b506001936001600160601b038216610e44575b50505001949394610c06565b610e6b60008051602061540c83398151915293600f549261067464ffffffffff8516612b4c565b0390a1878080610e38565b6001600160601b038216036106dd5789610e25565b9091929350610ea0601254916106fe83612960565b6001600160601b03610eba81600f5460301c16809361286c565b93169182610f82575b505050610f23600092610f0760209360105480610f62575060018060a01b03601954169261077a60018060a01b036014541661076c604051948592338b8501612a17565b6040519485809481936337adb00f60e11b8352600483016127b8565b03925af180156107ea578a92610e2092610de592610f44575b819350610dd1565b610f5b9060203d81116107e3576107d4818361299f565b508e610f3c565b6108268161082161081461080d610f799587615005565b6018553861073f565b60195460008054601454610fbb966020966001600160a01b0393841696958416959390921693926108709291610821916106fe90612960565b03925af19283156107ea57610f07602093610f2393600096610fe3575b509350819450610ec3565b610ff990863d81116107e3576107d4818361299f565b5038610fd8565b508c1515610cc7565b50888d1115610cc1565b346101be5760003660031901126101be576020600954604051908152f35b346101be5760003660031901126101be57604061104c6142c8565b905061105661439e565b8351928352602083015250f35b346101be5760003660031901126101be57610160600f5460018060a01b03601454166012546001600160601b0360155462ffffff60135491601654926010549560115497866040519a868160901c168c5260301c1660208b015260408a0152606089015260018060a01b038216608089015260a088015260a01c1660c086015281811660e086015260601c16610100840152610120830152610140820152f35b346101be5760003660031901126101be57638b78c6d819546040516001600160a01b039091168152602090f35b346101be5760003660031901126101be5760e060018060a01b03600054166001546001600160601b03806002541660035460045491836005541694604051968752602087015260408601526060850152818116608085015260601c1660a083015260c0820152f35b60003660031901126101be576111ac61371d565b6000638b78c6d819546000805160206153cc8339815191528280a3600160ff1b638b78c6d81955005b346101be5760603660031901126101be576111ee612735565b6111f6612709565b6111fe612786565b9060ff600f5460281c166103ef576101f192612bab565b60003660031901126101be5763389a75e1600c523360005260006020600c2055337ffa7b8eab7da67f412cc9575ed43464468f9bfbae89d1675917346ca6d8fe3c92600080a2005b346101be5760003660031901126101be57307f0000000000000000000000000000000000000000000000000000000000000000036112ad5760206040516000805160206153ac8339815191528152f35b639f03a0266000526004601cfd5b346101be5760003660031901126101be5760206001600160601b0360055416604051908152f35b60403660031901126101be576112f66126f3565b602435906001600160401b0382116101be57366023830112156101be578160040135906001600160401b0382116101be5736602483850101116101be57307f0000000000000000000000000000000000000000000000000000000000000000146112ad5761136261371d565b60018060a01b03166352d1902d6001526000805160206153ac833981519152602060016004601d855afa51036113f257807fbc7cd75a20ee27fd9adebab32041f755214dbc6bffa90cc0225b39da2e5c2d3b600080a281816000805160206153ac833981519152556113d057005b816000926024604051950185378338925af4156113e957005b3d6000823e3d90fd5b6355299b496001526004601dfd5b346101be5760203660031901126101be576004358015158091036101be5761142661371d565b600f549060ff8260281c16151581146103ef5760ff60281b9060281b169060ff60281b191617600f55600080f35b346101be5760003660031901126101be576020600354604051908152f35b346101be5760003660031901126101be576040514360208201526020815261149b60408261299f565b6114a36133d2565b62ffffff811662ffffff81141580611660575b1561156357600052600760205264ffffffffff604060002054169064ffffffffff6000925b16918215611521576114ff9083600052600660205260406000205460a01c90612acf565b91600052600660205264ffffffffff8060016040600020015460281c166114db565b6040805162ffffff841660208201526001600160601b0390921690820152909261155e9250611558919061077a826060810161076c565b9161349a565b6114a3565b6115818360405190600060208301526020825261077a60408361299f565b611589613581565b62ffffff811662ffffff81141580611657575b1561164957600052600860205264ffffffffff604060002054169064ffffffffff6000925b16918215611607576115e59083600052600660205260406000205460a01c90612acf565b91600052600660205264ffffffffff8060016040600020015460281c166115c1565b6040805162ffffff841660208201526001600160601b03909216908201529092611644925061163e919061077a826060810161076c565b91613637565b611589565b604051806102a685826127b8565b5080151561159c565b508015156114b6565b346101be5760003660031901126101be57602064ffffffffff600f5416604051908152f35b60403660031901126101be576116a2612735565b6116aa612777565b600f549160ff8360281c166103ef5760ff60055460c01c169060038210159182610a6e57600214938415611adb57506116f561061f6116ea601354612960565b62ffffff8416612859565b3410610ada575b9060009260009261170b61439e565b929092956000926060965b62ffffff82169182151580611ab5575b80611aac575b156118ce57506001600160601b0361174d600f5493828560301c1690612dfd565b1690670de0b6b3a7640000820291808304670de0b6b3a7640000149015171561185b5789936105386117e0926001600160601b036117a162ffffff6117e69860901c169661179b888b612859565b9061286c565b16809d81966000908d600014611879575050506117c06117da91614cec565b92909b8c8094985b60009215611871576105389250613321565b9c613321565b97612aef565b936001600160601b03611805600f549362ffffff8560901c1690612859565b9260301c16670de0b6b3a7640000810290808204670de0b6b3a7640000149015171561185b5762ffffff926001600160601b03611843931690614fc1565b169161184d61439e565b989094969193909897611716565b634e487b7160e01b600052601160045260246000fd5b505090612acf565b928260406118c29362ffffff670de0b6b3a76400006118b28983836118aa6117da9d6001600160601b039f9d612859565b041696612859565b0416815260086020522090614707565b93169b8c8094986117c8565b8a92508791896001600160601b038896169182611948575b50505062ffffff16938415610a9557610a8457610a6e5715611919576109e16109dc61061f6020946106fe601354612960565b601954601554601354610a38946020936001600160a01b03938416931691610a189161061f916106fe90612960565b6001600160601b03929650611963601254976106fe89612960565b61197584600f5460301c16809261286c565b9760018060a01b03601454169485931680611a47575b5050505060105480611a03575b506119c86000939261077f8860209461077a60018060a01b03601954169461076c604051948592338b8501612a40565b03925af19182156107ea5762ffffff926119e4575b81926118e6565b6119fc9060203d6020116107e3576107d4818361299f565b50866119dd565b6000939261077f88602094611a3861082686611a2961080d6108219f996119c89a615005565b9d8e956106fe60115484613363565b60185594505050929350611998565b611a7593600061087060209561082160018060a01b0360195416956106fe60018060a01b0386541698612960565b03925af180156107ea57611a8d575b8080849261198b565b611aa59060203d6020116107e3576107d4818361299f565b5087611a84565b5089151561172c565b5062ffffff670de0b6b3a7640000611ad482600f5460901c168d612859565b0410611726565b611b179060018060a01b036015541690610b3860018060a01b03601954169162ffffff611b0c610b25601354612960565b9160901c169061286c565b6116fc565b60003660031901126101be5763389a75e1600c52336000526202a30042016020600c2055337fdbf36a107da19e49527a7176a1babf963b4b0ff8cde35ee35d6cd8f1f9ac7e1d600080a2005b346101be5760203660031901126101be576004356001600160401b0381116101be57611b98903690600401612747565b9060005b828110611bd757507f386974f41b61738b510019ccd5a3524a43eccf0d136929e09d524e87aeeca2c4916106c3604051928392339184612906565b80611bf5611bf0611beb60019487876128aa565b6128f4565b612e20565b5001611b9c565b346101be5760c03660031901126101be576004356001600160401b0381116101be57611c2c903690600401612747565b610160526024356001600160401b0381116101be57611c4f903690600401612747565b91906044356001600160401b0381116101be57611c70903690600401612747565b90610180526064356001600160401b0381116101be57611c94903690600401612747565b90926084356001600160401b0381116101be57611cb5903690600401612747565b60a4356101c0819052909791969080151590036101be5760ff600f5460281c166103ef578161016051036103ff578385036103ff579594939291906000610140525b610160516101405110611dd8575b5050909192935060005b828110611d74575b5050505060005b828110611d5957507f386974f41b61738b510019ccd5a3524a43eccf0d136929e09d524e87aeeca2c4916106c3604051928392339184612906565b80611d6d611bf0611beb60019487876128aa565b5001611d1e565b62ffffff611d896103b68386610180516128aa565b1615611dd357611da06103b68285610180516128aa565b90611daf6103ca8285886128aa565b60ff600f5460281c166103ef57600192611dcd916101c05191612bab565b01611d0f565b611d17565b62ffffff611df06103b661014051610160518b6128aa565b16156122c357611e0a6103b661014051610160518a6128aa565b61024052611e1f6103ca6101405183856128aa565b6101e05260ff600f5460281c166103ef5762ffffff610240511615610908576016546001600160601b0381166001600160601b036101e0511611156108f7576001600160601b039060601c166001600160601b036101e0511610156108f75762ffffff611e968160155460a01c1661024051612b36565b166108e6576101e05161010052600061022081905260e052611eb661439e565b610200526101a0526102005160a05260008060805260606080525b6001600160601b0361010051161515806122af575b806122a4575b1561200857611f7f9061055a61010051600080610120526101a051600014611fb55750610554611f1e61010051614cec565b610120525b8061010052611f3e611f358285613321565b61022051612acf565b6102205260006101a051600014611fac5750611f65611f5d8285613321565b60e051612acf565b60e05262ffffff61054d81600f5460901c1660a051614fd7565b96611f8f61012051608051612aef565b608052611f9a61439e565b60c082905260a0526101a05296611ed1565b611f6590611f5d565b6001600160601b03611ffe6105549262ffffff670de0b6b3a7640000611fe482600f5460901c1660a051612859565b041660a05182526008602052604061010051922090614707565b6101205216611f23565b96909192939495966001600160601b03610220511680612135575b50610de561203b9161055a6101005161024051614460565b6101c051612104575b6001600160601b03610100511661206c575b6001610140510161014052959493929190611cf7565b60008051602061540c8339815191526120fc600f5461209164ffffffffff8216612b4c565b9064ffffffffff82169064ffffffffff191617600f556120b361024051614070565b5062ffffff610240511660005260076020526120e46120d682604060002061419c565b8261010051610240516141fb565b60405191829161024051906101005190339085612b66565b0390a1612056565b6001600160601b0361010051166001600160601b036101e051160315612044576306e6da4d60e01b60005260046000fd5b90612146601254926106fe84612960565b916121606001600160601b03600f5460301c16809461286c565b926001600160601b0360e05116918261222e575b50505060206121d06000936010548061220e575b506019546014546040516001600160a01b039283169361077f9391926121c89284926121ba92909116338a8501612a17565b03601f19810183528261299f565b608051612aef565b03925af19081156107ea5761203b92610de5926121f0575b509150612023565b6122079060203d81116107e3576107d4818361299f565b508b6121e8565b6108268161082161081461080d6122259587615005565b6018558d612188565b60195460008054601454612267966020966001600160a01b0393841696958416959390921693926108709291610821916106fe90612960565b03925af180156107ea576000936020926121d092612287575b5093612174565b61229d90843d81116107e3576107d4818361299f565b508d612280565b5060a0511515611eec565b5062ffffff610240511660a0511115611ee6565b611d05565b346101be5760203660031901126101be5760043564ffffffffff81168091036101be57600052600660205260c0604060002060ff600182549201546040519260018060a01b038116845260a01c602084015264ffffffffff8116604084015264ffffffffff8160281c16606084015262ffffff8160501c16608084015260681c16151560a0820152f35b346101be576102003660031901126101be5761236c6126f3565b6024359060038210156101be576044356001600160a01b03811692908390036101be576084356001600160a01b03811693908490036101be5760c4356001600160a01b038116908190036101be5760e435906001600160601b03821682036101be57610104359562ffffff871687036101be57610124359162ffffff831683036101be57610144356001600160601b0381168091036101be57610164356001600160601b03811681036101be5761018435916101a435936101c4359560018060a01b0387168097036101be576101e435976001600160601b0389168099036101be5763409feecd19805460038255909d9080612659575b50638b78c6d8195461264b576001600160a01b0316801560ff1b8117638b78c6d8195560006000805160206153cc8339815191528180a385611f4002611f408104870361185b576127109004871161263a576001600160601b03600a8a06161580612631575b80612626575b1561261557600a9960009e6005549c60018060a01b031960145416176014556015549460643560125560a43560135560018060a01b0319601954161760195571ffffffffffffffffffffffff000000000000600f549162ffffff60901b9060901b169260301b16906601000000000000600160a81b0319161717600f5562ffffff60a01b9060a01b169168ffffffffffffffffff60b81b161717601555601654916001600160601b0360601b9060601b16916001600160401b0360c01b16171760165560105560115560018060a01b0319875416178655046001600160601b0360601b9060601b169160ff60c01b9060c01b1690600160601b600160c81b0319161717600555806000196003556125e4575080f35b6002905560016020527fc7f505b2f371ae2175ee4913f4499e1f2633a7b5936321eed1cdaeb6115181d2602080a180f35b633cd146b160e01b60005260046000fd5b506101f489106124cf565b508815156124c9565b63a926954560e01b60005260046000fd5b630dc149f06000526004601cfd5b6001919e9181811c14303b10156126755760ff1b1b9c8f612463565b63f92ee8a96000526004601cfd5b346101be5760203660031901126101be5760043560005260086020526102a6604060002054604051918164ffffffffff80859460281c1691168390929164ffffffffff60209181604085019616845216910152565b346101be5760003660031901126101be57602090600c548152f35b600435906001600160a01b03821682036101be57565b602435906001600160601b03821682036101be57565b600435906001600160601b03821682036101be57565b6004359062ffffff821682036101be57565b9181601f840112156101be578235916001600160401b0383116101be576020808501948460051b0101116101be57565b6024359081151582036101be57565b6044359081151582036101be57565b60005b8381106127a85750506000910152565b8181015183820152602001612798565b604091602082526127d88151809281602086015260208686019101612795565b601f01601f1916010190565b60606003198201126101be576004356001600160401b0381116101be578161280e91600401612747565b92909291602435906001600160401b0382116101be5761283091600401612747565b909160443580151581036101be5790565b906103e88202918083046103e8149015171561185b57565b8181029291811591840414171561185b57565b8115612876570490565b634e487b7160e01b600052601260045260246000fd5b906001600160601b0316908115612876576001600160601b03160490565b91908110156128ba5760051b0190565b634e487b7160e01b600052603260045260246000fd5b3562ffffff811681036101be5790565b356001600160601b03811681036101be5790565b3564ffffffffff811681036101be5790565b604080825281018390529293929160608301906000905b808210612938575050602091509360018060a01b0316910152565b909183359064ffffffffff82168092036101be5790815260209384019301916001019061291d565b604d811161185b57600a0a90565b60c081019081106001600160401b0382111761298957604052565b634e487b7160e01b600052604160045260246000fd5b90601f801991011681019081106001600160401b0382111761298957604052565b3d156129fa573d906001600160401b03821161298957604051916129ee601f8201601f19166020018461299f565b82523d6000602084013e565b606090565b908160209103126101be575180151581036101be5790565b6001600160a01b0391821681529116602082015260408101919091526001606082015260800190565b6001600160a01b0391821681529116602082015260408101919091526000606082015260800190565b6001600160a01b039182168152911660208201526040810191909152901515606082015260800190565b6001600160601b03166107d001906001600160601b03821161185b57565b6001600160601b03166103e801906001600160601b03821161185b57565b906001600160601b03809116911601906001600160601b03821161185b57565b612b349092919260206040519482612b108794518092858088019101612795565b8301612b2482518093858085019101612795565b010103601f19810184528361299f565b565b9062ffffff169081156128765762ffffff160690565b64ffffffffff60019116019064ffffffffff821161185b57565b64ffffffffff90911681526001600160a01b0390911660208201526001600160601b0391909116604082015262ffffff90911660608201526001608082015260a00190565b90916016546001600160601b038416906001600160601b0381168211156108f75760601c6001600160601b03168110156108f75762ffffff612bf48160155460a01c1685612b36565b166108e65762ffffff831693841561090857612c2a612c309261063061098360018060a01b0360145416926106fe601254612960565b83613cdb565b9091612db9575b506001600160601b0316908115612db45760008051602061540c8339815191529260a092612d94600f5493612c91612c7564ffffffffff8716612b4c565b9164ffffffffff8316809764ffffffffff191617600f55614107565b50836000526008602052612ca981604060002061419c565b60405190612cb68261296e565b338252602080830186815264ffffffffff9283166040808601828152600060608801818152608089018d815260a08a018381528f8452600690985293909120975188546001600160a01b0319166001600160a01b03919091161788559351929690959193612d4f93909183918291600191612d3a906001600160601b0316826141d8565b01975116168219875416178655511684612ddb565b518254915163ffffffff60501b1990921660509190911b62ffffff60501b161790151560681b60ff60681b161790556000908152600660205260409020600101612ddb565b6040519283523360208401526040830152606082015260006080820152a1565b505050565b6106dd5738612c37565b9062ffffff8091169116019062ffffff821161185b57565b9064ffffffffff60281b82549160281b169064ffffffffff60281b1916179055565b906001600160601b03809116911602906001600160601b03821691820361185b57565b64ffffffffff16806000526006602052604060002090604051612e428161296e565b6001835493818060a01b0385168352602083019460a01c855201549264ffffffffff8416926040830190848252606084019064ffffffffff8760281c16825262ffffff8760501c16608086019681885260ff60a088019960681c16151590818a52151560001461326a57505064ffffffffff83511660005260066020528064ffffffffff60016040600020015460281c1603613208578651156132235762ffffff865116600052600760205264ffffffffff60406000205416818111159081613219575b5015613208575b84516001600160a01b031633036131f75764ffffffffff835116806131ce575b5064ffffffffff82511680613199575b5086511561309c5760209492869492612f9a9262ffffff6130269951166000526007885264ffffffffff604060002054161461305c575b62ffffff8651166000526007875264ffffffffff806040600020935116915116916146d3565b6019549151601554915193516001600160a01b039182169493821693929091169160009161300891612fda9162ffffff16906001600160601b0316612dfd565b62ffffff611b0c81612ffc600f54946001600160601b038660301c169061288c565b166106fe601354612960565b604051633af55cc760e11b8152968795869485939160048501612a17565b03925af180156107ea5761303d575b505b51151590565b6130559060203d6020116107e3576107d4818361299f565b5038613035565b62ffffff86511660005260078752604060002061308264ffffffffff83511680926144b9565b50612f745761309662ffffff875116614596565b50612f74565b916130ec9162ffffff87602097958261312b9a51166000526008895264ffffffffff604060002054161461315f575b51166000526008865264ffffffffff806040600020935116915116916146d3565b601954905160145492516012546001600160a01b0392831694938316939092169160009161300891610983916001600160601b0316906106fe90612960565b03925af180156107ea57613140575b50613037565b6131589060203d6020116107e3576107d4818361299f565b503861313a565b8181511660005260088852604060002061318264ffffffffff85511680926144b9565b506130cb57613193828251166144f7565b506130cb565b64ffffffffff84511690600052600660205264ffffffffff6001604060002001911664ffffffffff1982541617905538612f3d565b6131f19064ffffffffff8451169060005260066020526001604060002001612ddb565b38612f2d565b63a0cdd78160e01b60005260046000fd5b63020a7dc960e61b60005260046000fd5b9050151538612f06565b62ffffff865116600052600860205264ffffffffff60406000205416818111159081613260575b50612f0d5763020a7dc960e61b60005260046000fd5b905015153861324a565b156132a4575062ffffff86511660005260076020528064ffffffffff604060002054160315612f0d5763020a7dc960e61b60005260046000fd5b60005260086020528064ffffffffff604060002054160315612f0d5763020a7dc960e61b60005260046000fd5b601c600060649281946020966040519860605260405260601b602c526323b872dd60601b600c525af13d15600160005114171615613313576000606052604052565b637939f4246000526004601cfd5b906001600160601b03809116911603906001600160601b03821161185b57565b6001600160a01b03918216815291166020820152604081019190915260600190565b9190820391821161185b57565b9190820180921161185b57565b600080808060018060a01b03601954166133978634613363565b905af16133a26129c0565b50156133c157600080808093335af16133b96129c0565b50156133c157565b63386bf62b60e11b60005260046000fd5b60008052600b6020526133ea60006040812054615027565b60018101613492575060008052600a60205261340b60006040812054615027565b6001810161347557506134216000600954615027565b6001810161342f5750600090565b80600052600a60205260ff613448604060002054615050565b169060081b1780600052600b60205262ffffff60ff61346b604060002054615050565b169160081b161790565b80600052600b60205262ffffff60ff61346b604060002054615050565b62ffffff1690565b8060081c9060ff811660ff810361354a575b5060ff9060101c1660ff821660ff8103613504575b5060ff91501660ff81036134d6575b50600090565b6134e290600954615027565b60018101156134d05780600052600a60205260ff613448604060002054615050565b61351c9082600052600a602052604060002054615027565b9160018301156134c15761ff009150161780600052600b60205262ffffff60ff61346b604060002054615050565b6135669061ffff8416600052600b602052604060002054615027565b60018101156134ac5762ffffff1662ffff0090911617919050565b60008052600e60205261359960006040812054615027565b60018101613492575060008052600d6020526135ba60006040812054615027565b6001810161361a57506135d06000600c54615027565b600181016135de5750600090565b80600052600d60205260ff6135f7604060002054615050565b169060081b1780600052600e60205262ffffff60ff61346b604060002054615050565b80600052600e60205262ffffff60ff61346b604060002054615050565b8060081c9060ff811660ff81036136e6575b5060ff9060101c1660ff821660ff81036136a0575b5060ff91501660ff81036136725750600090565b61367e90600c54615027565b60018101156134d05780600052600d60205260ff6135f7604060002054615050565b6136b89082600052600d602052604060002054615027565b91600183011561365e5761ff009150161780600052600e60205262ffffff60ff61346b604060002054615050565b6137029061ffff8416600052600e602052604060002054615027565b60018101156136495762ffffff1662ffff0090911617919050565b638b78c6d81954330361372c57565b6382b429006000526004601cfd5b601954604051633609c92960e11b81529360209385936001600160a01b0390931692849260009284926137709260048501613341565b03925af180156107ea576137815750565b6137999060203d6020116107e3576107d4818361299f565b50565b60009081926137a96142c8565b90946060935b6001600160601b03811680151580613cab575b80613c9e575b15613ae45781908880613acd575b60009015613a83575060015490600454906001600160601b038260601c166002549561380b6001600160601b03881683613321565b926001600160601b03841611918215613a7a57819788935b1561399b5750506000805160206153ec83398151915293509061386c916002546001600160601b0361385783828416612acf565b16906001600160601b03191617600255613321565b926138df61387a82886151de565b966138908160018060a01b036000541695613321565b6040805160008082526001600160a01b0390971660208201529081019590955260608501939093526001600160601b0392831660808501523360a085015290911660c0830152819060e0820190565b0390a191935b829860001461393d57509161391e6139046139249361392a9695613321565b6001546001600160601b0380600f5460301c169216614fc1565b90613370565b93612aef565b916139336142c8565b90959190916137af565b61398e62ffffff916139596139959561392a98979a9b95613321565b906001600160601b038085670de0b6b3a7640000613980600f5495838760901c1690612859565b04169260301c169216614fc1565b1690612dc3565b94612aef565b9092506001600160601b0319166002556001600160601b0382811960055416178060055560601c16906107d06001600160601b036139d884612a93565b169384810294818604149015170215613a6c57613a60613a3289936000805160206153ec8339815191529761386c966107d06001600160601b0360601b910460601b16906001600160601b0360601b191617600455612ab1565b610821613a3e89612841565b6b7fffffffffffffffffffffff6001600160601b0384169360011c1690613370565b60015585600355613321565b63ad251c276000526004601cfd5b83978893613823565b613ac49150926001600160601b0393604062ffffff670de0b6b3a7640000613ab282600f5460901c168b612859565b04169188815260076020522090614a93565b921691936138e5565b506001600160601b0360045460601c1615156137d6565b5093929490955062ffffff915016938415801590613c95575b613b0c57505090915090600090565b613b44613b2261061f601354976106fe89612960565b670de0b6b3a7640000613b3d613b3789612960565b85612859565b0490613370565b9481613bfc575b50506020613b9060009260105480613bc0575b50610f078760018060a01b03601954169261077a60018060a01b036015541661076c89604051958693338c8601612a69565b03925af180156107ea57613ba357509190565b613bbb9060203d6020116107e3576107d4818361299f565b509190565b613beb81610821613bde613bd7613bf3958d615005565b809c613363565b9a6106fe60115484613363565b601754613370565b60175538613b5e565b60195460008054601554613c57956020956001600160a01b03938416958416949290931692670de0b6b3a764000091613c38916106fe90612960565b049360405196879586948593633609c92960e11b855260048501613341565b03925af180156107ea57600092602092613b9092613c78575b509250613b4b565b613c8e90843d86116107e3576107d4818361299f565b5038613c70565b50801515613afd565b5062ffffff8414156137c8565b5062ffffff600f5460901c1660009015613cc7575060016137c2565b634e487b7160e01b81526012600452602490fd5b60009291839190613cea6142c8565b90956060925b6001600160601b0381168015158061402b575b8061401e575b15613ef15781908980613eda575b60009015613ea2575060015490600454906001600160601b038260601c1660025495613d4c6001600160601b03881683613321565b926001600160601b03841611918215613e9957819788935b15613e025750506000805160206153ec833981519152935090613d98916002546001600160601b0361385783828416612acf565b92613da661387a82886151de565b0390a191935b8299600014613de657509161391e613904613dcb93613dd19695613321565b92612aef565b92613dda6142c8565b91909694929094613cf0565b61398e62ffffff9161395961399595613dd19897999b95613321565b9092506001600160601b0319166002556001600160601b0382811960055416178060055560601c16906107d06001600160601b03613e3f84612a93565b169384810294818604149015170215613a6c57613a60613a3289936000805160206153ec83398151915297613d98966107d06001600160601b0360601b910460601b16906001600160601b0360601b191617600455612ab1565b83978893613d64565b613ed19150926001600160601b0393604062ffffff670de0b6b3a7640000613ab282600f5460901c168b612859565b92169193613dac565b506001600160601b0360045460601c161515613d17565b5062ffffff9095169650919250508415801590614015575b613f1857505090915090600090565b613f2e613b2261061f601354976106fe89612960565b9481613f9b575b50506020613b9060009260105480613f7b575b50610f078760018060a01b03601954169261077a60018060a01b036015541661076c6001604051958693338c8601612a69565b613beb81610821613bde613bd7613f92958d615005565b60175538613f48565b60195460008054601554613fd7956020956001600160a01b03938416958416949290931692670de0b6b3a764000091613c38916106fe90612960565b03925af180156107ea57600092602092613b9092613ff8575b509250613f35565b61400e90843d86116107e3576107d4818361299f565b5038613ff0565b50801515613f09565b5062ffffff841415613d09565b5062ffffff8616670de0b6b3a7640000810290808204670de0b6b3a7640000149015171561185b576140689062ffffff600f5460901c169061286c565b841015613d03565b8060081c9061ffff821680600052600b60205260406000205490600160ff84161b8217908183036140a5575050505050600090565b600052600b602052604060002055156140c0575b5050600190565b60101c60ff9081166000818152600a6020526040902080546001949093169390931b8217909255156140f3575b806140b9565b60ff600191161b60095417600955386140ed565b8060081c9061ffff821680600052600e60205260406000205490600160ff84161b82179081830361413c575050505050600090565b600052600e60205260406000205515614156575050600190565b60101c60ff9081166000818152600d6020526040902080546001949093169390931b82179092551561418857806140b9565b60ff600191161b600c5417600c55386140ed565b805460281c64ffffffffff1691826141cf57815464ffffffffff191664ffffffffff82161782556141cc91612ddb565b90565b6141cc91612ddb565b80546001600160a01b031660a09290921b6001600160a01b031916919091179055565b926001612b3494612d4f64ffffffffff8681808660405161421b8161296e565b3381526001600160601b03602082019b168b52612d3a6001600160601b0384604084019c169c8d8d5285606085019860008a5262ffffff608087019d168d5260a086019d8e52166000526006602052604060002093858060a01b0390868060a01b0390511616858060a01b03198554161784555116826141d8565b60018060a01b031680638b78c6d819546000805160206153cc833981519152600080a3801560ff1b17638b78c6d81955565b62ffffff6142d4615110565b1662ffffff81036142fb57506001549081156142f05760019190565b6000915062ffffff90565b6001548061433f5750670de0b6b3a7640000810290808204670de0b6b3a7640000149015171561185b5761433a9062ffffff600f5460901c169061286c565b600091565b9190670de0b6b3a7640000810290808204670de0b6b3a7640000149015171561185b5762ffffff600f5460901c16614377818361286c565b60009290858118818711021885036143925750505060019190565b9193506141cc9161286c565b62ffffff6143aa613581565b16801580156143d05750506003549060001982146143c85760019190565b600091508190565b6003546001810161440f5750670de0b6b3a76400008202918204670de0b6b3a764000014171561185b5761433a9062ffffff600f5460901c169061286c565b929190670de0b6b3a76400008202918204670de0b6b3a764000014171561185b5762ffffff600f5460901c16614445818361286c565b60009290858118818710021885036143925750505060019190565b62ffffff906001600160601b0380600f5460301c169283921693169283810293818504149015170215613a6c57808204910615150162ffffff8110156144a85762ffffff1690565b630b25243160e01b60005260046000fd5b9064ffffffffff8116156144e05764ffffffffff1664ffffffffff19825416179055600090565b50805469ffffffffffffffffffff19169055600190565b8060081c9061ffff821680600052600e60205260406000205490600160ff84161b19821680920361452b5750505050600090565b600052600e6020528060406000205515614546575050600190565b60ff9060101c169081600052600d602052600160ff60406000205492161b191681600052600d602052806040600020551561458157806140b9565b60ff600191161b19600c5416600c55386140ed565b8060081c9061ffff821680600052600b60205260406000205490600160ff84161b1982168092036145ca5750505050600090565b600052600b60205280604060002055156145e5575050600190565b60ff9060101c169081600052600a602052600160ff60406000205492161b191681600052600a602052806040600020551561462057806140b9565b60ff600191161b1960095416600955386140ed565b908060081c9061ffff821660028401816000528060205260406000205491600160ff85161b19831680930361466f57505050505050600090565b600052602052806040600020551561468a575b505050600190565b60101c60ff9081166000818152600185810160205260409091208054949093161b1990921690819055156146bf575b80614682565b60ff600191161b19815416905538806146b9565b9164ffffffffff90818316156146f7575b16156146ee575050565b612b3491612ddb565b81811682198554161784556146e4565b90919260609064ffffffffff8454165b6001600160601b03861680151580614a83575b15614a565760009164ffffffffff6001604082841695868152600660205220015460281c169083600052600660205260406000205460a01c928360009111600014614a50575061477a838a613321565b985b6000916001600160601b038b16159485614a3c575b5060008681526006602052604081206001810154905461486f9260689290921c60ff1615916001600160a01b0391909116908815614a26575084915b89600052600660205262ffffff60016040600020015460501c169181600014614a14576015546001600160a01b0316935b82156149ee5761480e8482615399565b935b606093156149c8575061271061484d61484461098360018060a01b0360145416946001600160601b03610618601254612960565b60115490612859565b04905b816149a2575b505061076c61077a929360405195869360208501612a17565b948015614979575b614944575b506000858152600660205260409020805460019190910154670de0b6b3a7640000605082901c62ffffff16818102989360689390931c60ff1615926001600160a01b0316918115918a0414171561185b576001600160601b036000805160206153ec8339815191529560e0958f9461490d849661490761493d9e62ffffff600f5460901c169061286c565b93613321565b946040519788526020880152604087015260608601521660808401523360a08401521660c0820152a19693612aef565b9194614717565b6001600160601b038316614971575b5084600052600660205261496b8260406000206141d8565b3861487c565b925038614953565b5083158015614877575085600052600660205264ffffffffff6001604060002001541615614877565b61077a9350906149c261076c926121ba6040519384928760208501612a17565b92614856565b6015546001600160a01b031691612710916149e7916148449190615399565b0490614850565b614a0e6109836149ff601254612960565b6001600160601b038416612859565b93614810565b6014546001600160a01b0316936147fe565b808a604092526006602052205460a01c916147cd565b614a499193508290613321565b9138614791565b9861477c565b50614a6c8164ffffffffff9396979594976144b9565b501615614a7857509190565b613bbb90600c614635565b5064ffffffffff8216151561472a565b90919260609064ffffffffff8454165b6001600160601b03861680151580614cdc575b15614caf5760009164ffffffffff6001604082841695868152600660205220015460281c169083600052600660205260406000205460a01c928360009111600014614ca95750614b06838a613321565b985b6000916001600160601b038b16159485614c95575b50600086815260066020526040812060018101549054614b989260689290921c60ff1615916001600160a01b0391909116908815614a265750849189600052600660205262ffffff60016040600020015460501c169181600014614a14576015546001600160a01b03169382156149ee5761480e8482615399565b948015614c6c575b614c37575b506000858152600660205260409020805460019190910154670de0b6b3a7640000605082901c62ffffff16818102989360689390931c60ff1615926001600160a01b0316918115918a0414171561185b576001600160601b036000805160206153ec8339815191529560e0958f9461490d8496614907614c309e62ffffff600f5460901c169061286c565b9194614aa3565b6001600160601b038316614c64575b50846000526006602052614c5e8260406000206141d8565b38614ba5565b925038614c46565b5083158015614ba0575085600052600660205264ffffffffff6001604060002001541615614ba0565b614ca29193508290613321565b9138614b1d565b98614b08565b50614cc58164ffffffffff9396979594976144b9565b501615614cd157509190565b613bbb906009614635565b5064ffffffffff82161515614ab6565b90600354906005546001600160601b0381169060045494614d166001600160601b03871684613321565b926001600160601b0384166001600160601b038316109283600014614fb857829788945b15614ead57505050916001600160601b03614d7f60e0936000805160206153ec8339815191529560045484614d7183828416612acf565b169085191617600455613321565b6015549097908290614e35906001600160a01b03166000670de0b6b3a7640000614dca614dbf614db18789168f612859565b87600f5460301c169061286c565b6106fe601354612960565b0460609060018060a01b0360145416612710614e06614844614df8614df0601254612960565b8b8d16612859565b8a600f5460301c169061286c565b0480614e7a575b5050915460405193919261077a92859261076c9291906001600160a01b031660208501612a17565b97614e4b8360018060a01b036000541696613321565b90604051956000875260208701526001604087015260608601521660808401523360a08401521660c0820152a1565b845460405161077a955061076c939092614ea79284926121ba92916001600160a01b031660208501612a17565b92614e0d565b90919293506001600160601b0360601b8260601b16906001600160401b0360c01b16176004556001600160601b03614ee9818360601c16612a93565b16806107d08402936107d0818604149015170215613a6c5782816001600160601b03949285930491061515011690821916178060055560601c1691614f3f6001600160601b03614f3885612ab1565b1686612859565b6101f4810180911161185b576103e890046003556002546001600160601b03614f6a81831695612ab1565b1693846103e88202916103e8818404149015170215613a6c578760e0946001600160601b0393846000805160206153ec83398151915298614d7f950416908519161760025588600155613321565b84978894614d3a565b8181029181159183041417820215613a6c570490565b8181029181159183041417670de0b6b3a76400000215613a6c57670de0b6b3a7640000808204910615150190565b81810291811591830414176127100215613a6c57612710808204910615150190565b600190910160ff1690811c908161504057505060001990565b61504b60ff92615050565b011690565b6000908060801b80615104575b508060401b806150f7575b508060201b806150ea575b508060101b806150dd575b508060081b806150d0575b508060041b806150c3575b508060021b806150b6575b5060011b6150ae575b60ff0390565b6001016150a8565b600291509101903861509f565b6004915091019038615094565b6008915091019038615089565b601091509101903861507e565b6020915091019038615073565b6040915091019038615068565b9150506080903861505d565b61ffff600052600b60205261512b60ff6040600020546152b4565b600181016151d1575060ff600052600a60205261514e60ff6040600020546152b4565b600181016151b0575061516460ff6009546152b4565b60018101615174575062ffffff90565b80600052600a60205260ff61518d6040600020546152e2565b169060081b1780600052600b60205262ffffff60ff61346b6040600020546152e2565b61ff001780600052600b60205262ffffff60ff61346b6040600020546152e2565b62ffff001762ffffff1690565b906141cc9160018060a01b036014541691600091612710615254670de0b6b3a764000061524a614dbf61098361522a61098361521b601254612960565b6001600160601b038a16612859565b97606099506001600160601b0360018060a01b0360155416981690612859565b0460115490612859565b0480615281575b50506000546040519361077a92859261076c92906001600160a01b031660208501612a17565b60005460405193945061077a93926152ac9284926121ba92906001600160a01b031660208501612a17565b91903861525b565b60001990910160ff90811681031690811b806152d257505060001990565b6152dd60ff916152e2565b160390565b600091906001600160801b03811161538e575b806001600160401b0360019211615382575b63ffffffff8111615376575b61ffff811161536a575b60ff811161535e575b600f8111615352575b60038111615346575b1161533f57565b9060010190565b6002938401931c615338565b6004938401931c61532f565b6008938401931c615326565b6010938401931c61531d565b6020938401931c615313565b6040938401931c615307565b60809250821c6152f5565b612fda9062ffffff6141cc9316612dfd56fe360894a13ba1a3210667c828492db98dca3e2076cc3735a920a3ca505d382bbc8be0079c531659141344cd1fd0a4f28419497f9722a3daafe3b4186f6b6457e006029dfae141718336c21b1bb8cd746dc87a38baa63c413c40fa24b807b7cc05de65ec26e567cef1936a693231b33b08ce40fca66ce0e78b38d938048c7a0891a2646970667358221220d5992de7c1bc4c63fbb724df9b164c8a6655b9b1e8ccbae9890d8e7d56d918c464736f6c634300081a0033",
  "linkReferences": {},
  "deployedLinkReferences": {}
}